:0300000002015D9D
:0C015D00787FE4F6D8FD75810B02016983
:10014900C0F9A4B0999282F88090407924301912AC
:040159000278001018
:0701240093F5807F057E00CA
:10012B00D3EF9400EE940040147D6E7C00ED1D70B7
:0D013B00011CED4C70F7EF1F70E61E80E315
:010148002294
:1000C600758901E4F58A758C4CD291C290C292C2B0
:1000D60093900149120124C291D290D292D2939068
:1000E6000153E4120124D2AFC28CD2A9E4F509F57A
:0400F60008F50A22DD
:10000E00E50AC394004010D290C291C292C293E509
:10001E000A90014993F580120127E508C394004028
:10002E002FE50875F00A84FBE50875F00A84AFF039
:10003E00D291C290C292C293EF900153120124D278
:10004E0092C290C291C293AF03EF90014993F58093
:10005E00120127E509C394004010D293C290C291B9
:10006E00C292E50990015393F5807F057E0002014F
:01007E002B56
:1000FA0020B40F7F0A7E0012012B20B40530B4FD14
:10010A00B28C20B5147F0A7E0012012B20B50AE4B6
:0A011A00F50AF508F50930B4FD22DE
:0B0169001200C61200FA12000E80F80F
:03000B0002007F71
:10007F00C0E0C0D0758A00758C4C050BE50B64028F
:10008F007030F50B050AD2A0E50A640A7024F50A50
:10009F00E50A24FF92A00508E508B43C1575080091
:1000AF000509E509B40A0BC28C75090975083B757A
:0700BF000A09D0D0D0E032A5
:00000001FF
